:020000040800F2
:1000000018050020D10E00088501000887010008AE
:100010008B0100088F010008930100080000000018
:100020000000000000000000000000009701000830
:1000300099010008000000009B0100089D010008D4
:10004000EB0E0008EB0E0008EB0E0008EB0E0008AC
:10005000EB0E0008EB0E0008EB0E0008EB0E00089C
:10006000EB0E0008EB0E0008EB0E0008EB0E00088C
:10007000EB0E0008EB0E0008EB0E0008EB0E00087C
:10008000EB0E0008EB0E0008EB0E0008EB0E00086C
:10009000EB0E0008EB0E0008EB0E0008EB0E00085C
:1000A000EB0E0008EB0E0008EB0E0008EB0E00084C
:1000B000EB0E0008EB0E0008EB0E0008EB0E00083C
:1000C000EB0E0008EB0E0008EB0E0008EB0E00082C
:1000D000EB0E0008890B0008A90C0008EB0E0008C5
:1000E000EB0E0008EB0E0008EB0E0008EB0E00080C
:1000F000EB0E0008EB0E0008EB0E0008EB0E0008FC
:10010000EB0E0008EB0E0008EB0E0008EB0E0008EB
:10011000EB0E0008EB0E0008EB0E0008EB0E0008DB
:10012000EB0E0008EB0E0008EB0E0008EB0E0008CB
:10013000DFF80CD001F0CCFE004800474501000874
:100140001805002000F05CFC4FF4A06000F0D2FE27
:1001500000F016F900F0C2FB00F053FD4FF416500A
:1001600000F0C6FC0BE04FF4FA7000F086FC044887
:10017000006808B9012000E0002001490860F2E7AA
:1001800094812142704700BFFEE700BFFEE700BF39
:10019000FEE700BFFEE770477047704770470000FA
:1001A0000CB50020019000906C48006840F480304D
:1001B0006A49086000BF6948006800F40030009098
:1001C0000198401C0190009818B90198B0F5A06FF3
:1001D000F1D16248006800F4003010B101200090B5
:1001E00001E0002000900098012843D15C4800689D
:1001F00040F010005A4908600846006820F00300EB
:1002000008600846006840F00200086053484068F3
:10021000524948600846406848600846406840F4D3
:10022000806048600846406820F47C1048600846BA
:10023000406840F4E81048600846006840F080706C
:10024000086000BF4548006800F000700028F9D041
:100250004248406820F00300404948600846406832
:1002600040F00200486000BF3C48406800F00C00CD
:100270000828F9D10CBD10B5FFF792FF10BD10B5DD
:100280003648006840F0010034490860084640687C
:1002900034490840314948600846006832490840FE
:1002A0002E4908600846006820F48020086008464F
:1002B000406820F4FE0048604FF41F008860FFF79C
:1002C000DAFF4FF000602949086010BD10B5002129
:1002D00000200022214B5B6803F00C0121B10429AE
:1002E00006D0082928D107E0214B224C236027E0C3
:1002F0001F4B204C236023E0184B5B6803F4701005
:10030000164B5B6803F48032022303EB904022B962
:10031000194B4343174C23600DE0104B5B6803F40B
:10032000003323B1144B4343124C236003E0104BC2
:100330004343104C236003E00D4B0E4C236000BF81
:1003400000BF064B5B68C3F303130C4CE15C094B25
:100350001B68CB40074C236010BD0000001002401A
:10036000002002400000FFF8FFFFF6FE08ED00E06D
:1003700000127A000000002000093D000400002067
:1003800008B50121482001F03FF92020ADF8000018
:1003900010208DF8030003208DF8020069460948FB
:1003A00000F076FE2021074800F01FFF2020ADF866
:1003B00000006946044800F06BFE2021024800F06E
:1003C00014FF08BD000C014000180140002001E0AE
:1003D000411CC8B20A28FBDB704710B50420FA495B
:1003E000086002200860FFF7F1FF0420F649091DAC
:1003F0000860FFF7EBFF0220F349091D0860FFF7D3
:10040000E5FF10BD10B50420EF49091D086002206A
:10041000091F0860FFF7DAFF0420EB49086010BDF0
:1004200070B50446002520E004F0800018B10420D7
:10043000E549086003E00420E349091D0860FFF76F
:10044000C5FF0220E0490860FFF7C0FF0220DE4937
:10045000091D0860072D02D10420091F08606006ED
:10046000040EFFF7B3FF681CC5B2082DDCDB70BDBE
:1004700010B50420D4490860FFF7A8FF0220D24934
:100480000860FFF7A3FFD0480838006800F00400B8
:1004900008B1012400E000240220CB49091D0860B6
:1004A000FFF794FF204610BD10B50446FFF795FFF7
:1004B0007820FFF7B5FFFFF7DBFF0020FFF7B0FF65
:1004C000FFF7D6FF2046FFF7ABFFFFF7D1FFFFF79F
:1004D00099FF10BD10B50446FFF77FFF7820FFF7A6
:1004E0009FFFFFF7C5FF4020FFF79AFFFFF7C0FF10
:1004F0002046FFF795FFFFF7BBFFFFF783FF10BD17
:1005000008B50121082001F07FF80620ADF80000B1
:1005100010208DF8030003208DF802006946AA48D8
:10052000103800F0B5FDFFF76DFF08BD70B505464A
:100530000C461CB12846FFF7CDFF02E02846FFF726
:10054000B3FF70BD70B5002419E004F1B001C8B26A
:100550000021FFF7EBFF00210846FFF7E7FF00212E
:100560001020FFF7E3FF002505E001210020FFF741
:10057000DDFF681CC5B2802DF7DB601CC4B2082CFF
:10058000E3DB70BD10B500218D20FFF7CFFF002108
:100590001420FFF7CBFF0021AF20FFF7C7FF10BDEE
:1005A00070B504460D4605F1B001C8B20021FFF751
:1005B000BDFF102141EA14100021FFF7B7FF04F03E
:1005C0000F000021FFF7B2FF70BD2DE9F04707468D
:1005D0000E4690469946A8F12000C5B27F2F02DD55
:1005E0000027B01CC6B2B9F1100F24D131463846ED
:1005F000FFF7D6FF002408E004EB0511734A505CB6
:100600000121FFF793FF601CC4B2082CF4DB701CBF
:10061000C1B23846FFF7C4FF002409E004EB05111E
:1006200008316A4A505C0121FFF780FF601CC4B2A8
:10063000082CF3DB12E031463846FFF7B1FF002407
:100640000AE005EB4501624A02EB4101085D012128
:10065000FFF76CFF601CC4B2062CF2DBBDE8F0872C
:1006600010B50246012000E050430B00A1F1010447
:10067000E1B2F9D110BD2DE9FF5F074691461E4654
:100680000E9D4FF0000A002435E0301B401EC1B221
:100690000A20FFF7E5FFB9FBF0F00A21B0FBF1F209
:1006A00001FB1208BAF1000F14D1701EA04211DD37
:1006B000B8F1000F0CD1AB4605EBDB71491001FB23
:1006C0000471C8B22B4620220199FFF77EFF10E08B
:1006D0004FF0010AAB4605EBDB71491001FB0471D9
:1006E000C8B208F13001CAB22B460199FFF76DFF7D
:1006F00000BF601CC4B2B442C7DBBDE8FF9F2DE958
:10070000F04104460F461546984600260FE0AA5DC4
:10071000434639462046FFF758FF04F10800C4B2AB
:10072000782C02DD0024B81CC7B2701CC6B2A85DCC
:100730000028ECD1BDE8F0812DE9F04F87B082466A
:100740008B4617469846119D3846414601F0EAFA15
:100750000646304601F0D9FA3A464346CDE9000153
:1007600001F05EFA00221B4BCDE9020101F05BFAB9
:10077000CDE9040101F0D6FA81460022134638463D
:10078000414601F0E9FA06D2102313A25946504619
:10079000FFF7B5FF9FE0642E08D35446032332468B
:1007A000594650460095FFF766FF2FE00A2E17D3F3
:1007B000632E15D8AAF10804022332465946504642
:1007C0000095FFF758FF21E0100C0140B02200080F
:1007D0008820000800408F404D696E75732100002D
:1007E0005EB1092E09D8AAF11004012332465946F8
:1007F00050460095FFF73FFF08E0AAF110040123DF
:100800000022594650460095FFF735FF04F11801C4
:10081000C8B22B462E225946FFF7D7FEB9F1640F16
:1008200009D304F12001C8B203234A465946009572
:10083000FFF721FF4FE0B9F10A0F14D3B9F1630FAD
:1008400011D804F12801C8B202234A46594600953E
:10085000FFF711FF04F12001C8B22B4630225946A0
:10086000FFF7B3FE37E0B9F1000F1CD0B9F1090F63
:1008700019D804F13001C8B201234A4659460095FF
:10088000FFF7F9FE04F12801C8B22B463022594681
:10089000FFF79BFE04F12001C8B22B4630225946D7
:1008A000FFF793FE17E004F12001C8B22B46302277
:1008B0005946FFF78AFE04F12801C8B22B463022C0
:1008C0005946FFF782FE04F13001C8B22B463022B0
:1008D0005946FFF77AFE07B0BDE8F08F10B5FFF775
:1008E0000FFE4FF47A7000F0C8F80021AE20FFF739
:1008F0001DFE00210846FFF719FE00211020FFF71A
:1009000015FE00214020FFF711FE0021B020FFF767
:100910000DFE00218120FFF709FE0021FF20FFF7D7
:1009200005FE0021A120FFF701FE0021A620FFF710
:10093000FDFD0021A820FFF7F9FD00213F20FFF772
:10094000F5FD0021C820FFF7F1FD0021D320FFF7BE
:10095000EDFD00210846FFF7E9FD0021D520FFF756
:10096000E5FD00218020FFF7E1FD0021D820FFF701
:10097000DDFD00210520FFF7D9FD0021D920FFF77B
:10098000D5FD0021F120FFF7D1FD0021DA20FFF78E
:10099000CDFD00211220FFF7C9FD0021DB20FFF76C
:1009A000C5FD00213020FFF7C1FD00218D20FFF79C
:1009B000BDFD00211420FFF7B9FD0021AF20FFF796
:1009C000B5FDFFF7BFFD10BD08B5FFF7BBFDFFF795
:1009D000D9FD102306A203210620FFF790FE102068
:1009E00003233C22062100900846FFF744FE08BD81
:1009F000302E393627204F4C45442054455354005F
:100A000010B56FF0040000F0C4FA2E4800682E49BB
:100A1000B0FBF1F02D4908700846007800EB40016A
:100A2000C1EBC0104FF6FF7101EAC00028490880F1
:100A300010BD0146254A12784A434FF0E0235A611F
:100A400000229A611A46126942F001021A6100BF3F
:100A50004FF0E022106900F001021AB100F4803278
:100A6000002AF5D04FF0E022126922F001024FF087
:100A7000E0231A6100229A6170470146144A1288E5
:100A80004A434FF0E0235A6100229A611A461269E4
:100A900042F001021A6100BF4FF0E022106900F03D
:100AA00001021AB100F48032002AF5D04FF0E022A2
:100AB000126922F001024FF0E0231A6100229A61CC
:100AC000704700000000002000127A00140000208F
:100AD0001600002000BF704700BFED4A128802F0E8
:100AE0004002002AF9D0C2B2E94B1B1D1A807047A0
:100AF00010B586B00446012144F2040000F084FDE4
:100B00004FF40070ADF8140003208DF81600182083
:100B10008DF8170005A9DF4800F0BAFA4FF480609D
:100B2000ADF8140004208DF8170005A9D94800F08D
:100B3000AFFA25208DF8000003208DF801008DF814
:100B4000020001208DF80300684600F0D8F90194F6
:100B50000020ADF80800ADF80A00ADF80C00ADF8C3
:100B600010000C20ADF80E0001A9C94800F0F3FDFB
:100B7000012240F22551C64800F085FE0121C448FB
:100B800000F075FE06B010BD10B540F22551C0480A
:100B900000F05EFF10B3BE4800F0DAFEC4B2BE48FB
:100BA000008800F40040C8B9BB48008800F48040C9
:100BB00060B10A2C03D00020B749088020E0B64875
:100BC000008840F40040B449088019E00D2C06D19B
:100BD000B148008840F48040AF49088010E0AE483A
:100BE0000088C0F30D00AD490C54AB480088401C90
:100BF000A949088008460088C72801DD0020088030
:100C000010BD00B587B00121480400F00AFD0121A4
:100C1000042000F0F9FC0420ADF8180003208DF842
:100C20001A0018208DF81B0006A99A4800F030FA27
:100C30000820ADF8180004208DF81B0006A995487F
:100C400000F026FA26208DF8040000208DF805001B
:100C500002208DF8060001208DF8070001A800F0A1
:100C60004EF94FF4E13002900020ADF80C00ADF8E1
:100C70000E00ADF81000ADF814000C20ADF8120015
:100C800002A9874800F067FD012240F225518448FF
:100C900000F0F9FD0121824800F0E9FD4021804883
:100CA00000F0CDFE07B000BD38B540F225517C48BC
:100CB00000F0CEFE00281BD040F22551784800F00D
:100CC000F1FE774800F044FEC5B27648007880B95E
:100CD0002C2D0ED1012073490870734801780078DB
:100CE000401C714A1070714820F81150FFF72AFC1F
:100CF000CCE06C48007801280ED1122D0CD10220D6
:100D000068490870684801780078401C664A10708D
:100D1000664820F81150B9E062480078022835D1C1
:100D2000614801780078401C5F4A10705F4820F8E5
:100D30001150104600780A2801DA5B2DD8D1032023
:100D40005849087001205A49087057480078401FD8
:100D5000564911F810005749087053480078001F91
:100D6000524911F81000544908704F480078C01ECD
:100D70004E4911F81000514908704B480078801E08
:100D80004A4911F810004E4908707FE04548007844
:100D900003286CD144480078401E444931F81000C3
:100DA0005B2854D1002240F225513D4800F06BFDF4
:100DB0003F48007800283CD0FFF7C4FB10200323F5
:100DC00000903C48027800210846FFF754FC1020B0
:100DD000032300903848027811210020FFF74BFCD4
:100DE0001020032300903548027821210020FFF7CE
:100DF00042FC10200323009031480278312100206A
:100E0000FFF739FC2B4801782EA001F073F82A482F
:100E100001782CA001F06EF82848017829A001F093
:100E200069F82748017827A001F064F827A001F0AD
:100E300061F800201E4908701B49087019490870A4
:100E4000012240F22551164800F01DFD1EE0002051
:100E50001449087014490870002405E00020134963
:100E600021F81400601CC4B20A2CF7DB0EE000204D
:100E70000C4908700C490870002405E000200B495B
:100E800021F81400601CC4B20A2CF7DB38BD000046
:100E90000038014000080140200000203C000020F4
:100EA0000044004023000020220000200401002014
:100EB0002400002018000020190000201A00002043
:100EC0001B00002025640D0A000000000D0A000030
:100ED0000648804706480047FEE7FEE7FEE7FEE7D4
:100EE000FEE7FEE7FEE7FEE7FEE7FEE77F0200081B
:100EF0003101000831490143314A1160704770B532
:100F0000002100230F22C47804B32D4C246804F47C
:100F1000E064C4F5E064210AC1F10403CA404478E6
:100F200004FA03F18478144021430901254C067822
:100F3000A155047804F01F050124AC4005786D111B
:100F4000AD0005F1E025C5F8004109E0047804F0A2
:100F50001F050124AC401C4D0678761145F826404B
:100F600070BD1A4A0A400243154B1B1F1A60704796
:100F700039B1134A121D12680243114B1B1D1A602E
:100F800006E00F4A121D126882430D4B1B1D1A60AA
:100F90007047042808D14FF0E021096941F00401AD
:100FA0004FF0E022116107E04FF0E021096921F0E4
:100FB00004014FF0E0221161704700000000FA05C3
:100FC0000CED00E000E400E080E100E080FFFF1FA6
:100FD00010B50446CC48844208D10121042000F019
:100FE0002DFB0021042000F029FB46E0C748844285
:100FF00008D10121082000F021FB0021082000F089
:101000001DFB3AE0C248844208D10121102000F0C3
:1010100015FB0021102000F011FB2EE0BD4884429A
:1010200008D10121202000F009FB0021202000F040
:1010300005FB22E0B848844208D10121402000F09D
:10104000FDFA0021402000F0F9FA16E0B34884428E
:1010500008D10121802000F0F1FA0021802000F069
:10106000EDFA0AE0AE48844207D10121801500F074
:10107000E5FA0021A01500F0E1FA10BD10B501213C
:10108000084600F0DBFA0021012000F0D7FA10BD7D
:101090002DE9F0410246002500260020002300240F
:1010A000002791F803C00CF00F0591F803C00CF075
:1010B000100CBCF1000F03D091F802C04CEA0505FA
:1010C00091F800C0BCF1000F31D0146800202BE073
:1010D0004FF0010C0CFA00F3B1F800C00CEA030663
:1010E0009E4220D183004FF00F0C0CFA03F7BC4353
:1010F00005FA03FC4CEA040491F803C0BCF1280F84
:1011000006D14FF0010C0CFA00FCC2F814C00AE042
:1011100091F803C0BCF1480F05D14FF0010C0CFA57
:1011200000FCC2F810C0401C0828D1D31460B1F8EC
:1011300000C0BCF1FF0F34DD546800202EE000F148
:10114000080C4FF0010808FA0CF3B1F800C00CEAE3
:1011500003069E4221D183004FF00F0C0CFA03F7D7
:10116000BC4305FA03FC4CEA040491F803C0BCF14B
:10117000280F05D100F1080C08FA0CF8C2F8148009
:1011800091F803C0BCF1480F07D100F1080C4FF0F3
:10119000010808FA0CF8C2F81080401C0828CED3C9
:1011A0005460BDE8F0814FF6FF710180022181702B
:1011B0000421C17070470246002093680B400BB1B8
:1011C000012000E0002070470146886880B2704727
:1011D00002460020D3680B400BB1012000E0002044
:1011E00070470146C86880B270470161704741612D
:1011F00070470AB1016100E041617047C16070470A
:101200004FF480320A43826181618261826982691E
:10121000704702460020434B18684FF68073184011
:1012200040EA021008433F4B186070473E49C861CE
:101230007047F0B50A46002300240021002500F085
:101240000046B6F1004F02D1364EF16901E0354E4D
:101250007168C0F3034583B200F44016B6F5401F31
:1012600008D121F070612F4E766826F070662D4F00
:101270007E6012E000F48016B6F5801F06D10326CA
:1012800006FA05F4A14341F0706106E0460D36010F
:1012900003FA06F6B14341F0706122B1460D360102
:1012A00003FA06F6314300F00046B6F1004F02D1D2
:1012B0001C4EF16101E01B4E7160F0BD30B50022A3
:1012C0008B071C0F0F2303FA04F2164B08338C1004
:1012D00053F824309343134C08348D1044F82530D0
:1012E00023468C1053F824308C07240F00FA04F4A2
:1012F00023430C4C08348D1044F8253030BD0A4986
:10130000DC3108607047000000080140000C01401B
:10131000001001400014014000180140001C014071
:10132000002001400000014000002042DF4800682A
:1013300040F00100DD49086008464068DC4908408B
:10134000DA49486008460068DA490840D749086029
:101350000846006820F4802008600846406820F4B1
:10136000FE0048604FF41F0088607047CF4909684D
:1013700021F48031CD4A11601146096821F48021A1
:101380001160B0F5803F03D0B0F5802F0ED106E09C
:10139000C649096841F48031C44A116007E0C34975
:1013A000096841F4A021C14A116000E000BF00BFFC
:1013B000704710B501460022002300204A11012A7F
:1013C00002D1BA4C236806E0022A02D1B74C236A44
:1013D00001E0B64C636A01F01F02012494401C40F6
:1013E0000CB1012000E0002010BD38B500200090B5
:1013F0000024002500BF3120FFF7DBFF05460098E1
:10140000401C00900098B0F5A06F01D0002DF2D0E4
:101410003120FFF7CEFF08B1012400E00024204670
:1014200038BD01460020A14A106820F0F80040EACB
:10143000C10010607047A049086070470246002054
:101440009A4B586820F47C1042EA01031843974BEA
:101450005860704798490866704701460020934AD3
:10146000506820F003000843506070478F48406880
:1014700000F00C007047014600208C4A506820F0B4
:10148000F00008435060704701460020874A5068CA
:1014900020F4E06008435060704701460020834A12
:1014A000506820F4605040EAC1005060704729B194
:1014B0007E4A527A02437D4B5A7204E07B4A527A4A
:1014C00082437A4B5A7270477B49D8310860704723
:1014D00001460020754A506820F44040084350609F
:1014E00070470021714A20321170704A82F8201032
:1014F000012802D004280AD104E001216B4A2032DD
:10150000117005E00521694A2032117000E000BF2A
:1015100000BF70476949086070476449096A014320
:10152000624A11627047654944390860704730B5B6
:1015300000210022002400235C4D6D6805F00C01A1
:1015400021B1042905D0082923D105E05C4D0560AF
:1015500022E05B4D05601FE0544D6D6805F470128C
:10156000524D6D6805F48034022505EB92421CB99A
:10157000544D554305600BE04C4D6D6805F4003546
:101580001DB1504D5543056002E04D4D554305607A
:1015900002E04B4D056000BF00BF444D6D6805F093
:1015A000F0010909484D6B5C0568DD4045603F4D21
:1015B0006D6805F4E061090A434D6B5C4568DD40E8
:1015C00085603A4D6D6805F46051C90A3E4D6B5C0B
:1015D0004568DD40C560354D6D6805F44041890BB7
:1015E0003A4D6B5CC568B5FBF3F5056130BD29B1BB
:1015F0002E4A526902432D4B5A6104E02B4A52692C
:1016000082432A4B5A61704729B1284A92690243A2
:10161000264B9A6104E0254A92698243234B9A61E2
:10162000704729B1214AD2690243204BDA6104E0B4
:101630001E4AD26982431D4BDA61704729B11B4AA9
:10164000D2680243194BDA6004E0184AD268824338
:10165000164BDA60704729B1144A12690243134BE2
:101660001A6104E0114A12698243104B1A617047F3
:1016700012494039086070470F49C86470470B49E8
:10168000C87170470948406A40F080700749486255
:10169000704701460020054A92680A400AB10120BD
:1016A00000E0002070470149887270470010024036
:1016B0000000FFF8FFFFF6FE0000424280044242B5
:1016C00000127A0000093D002500002035000020AE
:1016D00010B50446FB48844209D101218803FFF775
:1016E000ADFF00214FF48040FFF7A8FF32E0F6483D
:1016F000844209D101214804FFF7ADFF00214FF4D6
:101700000030FFF7A8FF25E0F048844209D101210D
:101710008804FFF7A0FF00214FF48020FFF79BFF14
:1017200018E0EB48844209D10121C804FFF793FF78
:1017300000214FF40020FFF78EFF0BE0E5488442C4
:1017400008D101210805FFF786FF00214FF4801022
:10175000FFF781FF10BD2DE9F04786B005460E4624
:101760000024A24600BFA1460027B08900B100BFF7
:101770002F462C8A4CF6FF700440F08804432C82DC
:10178000AC894EF6F3100440B08831890843718962
:1017900008430443AC81AC8A4FF6FF400440B08953
:1017A0000443AC8201A8FFF7C2FEC648874202D1BB
:1017B000DDF810A001E0DDF80CA0A88900F40040DD
:1017C00040B10AEBCA0000EB0A1031684900B0FBD7
:1017D000F1F807E00AEBCA0000EB0A103168890053
:1017E000B0FBF1F86420B8FBF0F00401200964219B
:1017F00001FB1089A88900F4004040B1322000EBC1
:10180000C900B0FBF1F000F00700044308E032200B
:1018100000EB09106421B0FBF1F000F00F0004436D
:101820002C8106B0BDE8F0874FF41651016000210D
:101830008180C18001810C2141810021818170471B
:1018400010B502460020108A4FF2FF0318400B88A3
:101850004C8823438C882343CC882343184310822D
:1018600010BD0021018041808180C180704721B17D
:10187000828942F40052828104E082894DF6FF732E
:101880001A4082817047F0B50346002400260025E7
:10189000002040F66A17B94200D100BF1846C1F3D4
:1018A000421401F01F06012707FA06F5012C01D1A9
:1018B0000C3004E0022C01D1103000E014301AB1D9
:1018C00007682F43076002E00768AF430760F0BD79
:1018D0001AB1838A0B43838202E0838A8B4383821B
:1018E0007047028A4FF6F0731A400282028A0A4356
:1018F0000282704782894FF2FF731A408281828987
:101900000A438281704721B1828942F002028281BA
:1019100004E082894FF6FD731A4082817047028A83
:101920004FF6DF731A400282028A0A43028270472E
:1019300021B1028A42F48042028204E0028A4BF61C
:10194000FF731A4002827047C1F308028280704719
:1019500001468888C0F308007047818941F0010181
:1019600081817047028BD2B20283028B42EA01224C
:1019700002837047028B02F47F420283028B0A4388
:101980000283704721B1828A42F02002828204E001
:10199000828A4FF6DF731A408282704721B1828AB1
:1019A00042F01002828204E0828A4FF6EF731A40FE
:1019B0008282704721B1828A42F00802828204E06A
:1019C000828A4FF6F7731A408282704721B182896A
:1019D00042F40042828103E08289C2F30E028281D6
:1019E000704721B1828A42F40062828204E0828AD6
:1019F0004FF2FF731A4082827047828A4FF6FB7360
:101A00001A408282828A0A438282704721B1828A86
:101A100042F00202828204E0828A4FF6FD731A408D
:101A20008282704702460020B1F5007F00D100BFDE
:101A300013880B400BB1012000E00020704701F437
:101A40000072B2F5007F00D100BFCA430280704728
:101A500070B50246002400230025002040F66A16D7
:101A6000B14200D100BFC1F3421501F01F030126AE
:101A700006FA03F3012D02D19689334006E0022DC8
:101A800002D1168A334001E0968A33400C120126B7
:101A900006FA04F41688344013B10CB1012000E0BA
:101AA000002070BD10B50022002340F66A14A14248
:101AB00000D100BF0A1201249440A3B2DC43048089
:101AC00010BD0000003801400044004000480040C4
:101AD000004C0040005000402DE9FE4F804681EA56
:101AE0000300C00F0C46009021F0004123F0004598
:101AF000B8EB0200A94105D24046214690461C465B
:101B00000B46024623F00040104347D0270DC7F391
:101B10000A00C3F30A510290401A019040286BDA80
:101B2000C3F3130040F4801B0098924620B10023B9
:101B3000D2EB030A63EB0B0B01985946C0F140024C
:101B4000504600F037F906460D4650465946019A70
:101B500000F04FF910EB08006141002487EA1152B0
:101B600084EAE7731A4340D0009A62B3019A012ACB
:101B70004FEA075215DC001B61EB02014FF00042F7
:101B800002EA0752CDE90042001C41F580113246BD
:101B90002B4600F04FF903B0BDE8F08F40462146D8
:101BA000F9E7001B61EB0201001C41F580130018EE
:101BB0005B412018A2F5001747EB030140EAD570FE
:101BC000B6196D4111E06D084FEA360645EAC07559
:101BD0004FEA0752001B61EB0201001C41F5801126
:101BE00049084FEA30000019514132462B4603B0F4
:101BF000BDE8F04F00F00FB900980122400000232B
:101C0000D0EB020263EBE073009821464FEAE074E8
:101C1000B8EB000061EB0401E9E783F000435BE708
:101C200081F0004158E72DE9FE4F81EA030404F0FA
:101C3000004421F0004100944FF0000B23F00043DA
:101C400050EA01045ED052EA03045BD0C3F30A54A5
:101C5000C1F30A552C44A4F2F3340194A0FB0254BE
:101C6000C1F3130141F48011C3F3130343F4801350
:101C700001FB024400FB034E840A970A44EA8154A4
:101C800047EA8357A4FB076802958D0A05FB078581
:101C90004FEA932C04FB0C542705029D4FEA06588B
:101CA00047EA1637B5EB08056EEB070C870E920E68
:101CB00047EA811742EA8312A7FB0201B6EB0B0148
:101CC00064EB00042B0D43EA0C335E1844EB1C500C
:101CD000DA465146E7FB0201C5F313044FEA0B3322
:101CE00043EA14534FEA0432019C43EA0603A4F189
:101CF0000C040294009CCDE900B400F09BF803B002
:101D0000BDE8F08F00200146F9E70EB540F23341FF
:101D100002910021CDE900110A460B4600F08AF835
:101D200003B000BDC1F30A5210B5C1F3130140F274
:101D3000FF3341F480119A4201DA002010BD40F2D5
:101D400033439A42A2F2334203DC524200F041F89C
:101D500010BD904010BD000030B5041E71F10004AC
:101D600004DB4FF00044404264EB0101141E73F1A8
:101D7000000405DB1C464FF00043524263EB0403B2
:101D80008B4208BF824230BD30B50B460146002071
:101D90002022012409E021FA02F59D4205D303FA2D
:101DA00002F5491B04FA02F52844151EA2F10102AE
:101DB000F1DC30BD202A04DB203A00FA02F10020D9
:101DC00070479140C2F1200320FA03F31943904079
:101DD0007047202A04DB203A21FA02F000217047E4
:101DE00021FA02F3D040C2F1200291400843194683
:101DF0007047202A06DBCB17203A41FA02F043EA6B
:101E0000E07306E041FA02F3D040C2F120029140B3
:101E100008431946704710B5141E73F1000408DA20
:101E2000401C41F1000192185B411A4301D120F09E
:101E3000010010BD2DE9F04D92469B4611B1B1FA5B
:101E400081F202E0B0FA80F220329046FFF7B2FF52
:101E500004460F4640EA0A0041EA0B0153465A463F
:101E6000084313D0114653EA010019D0C8F14002CB
:101E70005046FFF7AEFF05460E46504659464246CD
:101E8000FFF798FF084305D0012004E020463946BB
:101E9000BDE8F08D0020054346EAE0762C43374349
:101EA0000A986305E40AA0EB08000022FD0A44EA50
:101EB00047540A3002D500200146E9E70105101910
:101EC0006941DDE9084500196941BDE8F04DA2E727
:101ED000064C074D06E0E06840F0010394E8070077
:101EE00098471034AC42F6D3FEF726F9A028000834
:101EF000C02800080FB4054B10B503A9044A029886
:101F000000F018F810BC5DF814FB0000D90A0008B6
:101F10001C00002002E008C8121F08C1002AFAD1E4
:101F200070477047002001E001C1121F002AFBD159
:101F3000704700002DE9FF4F89B09B4604460025FD
:101F400006E025280BD05A460B999047641C6D1C5F
:101F500020780028F5D10DB02846BDE8F08F002785
:101F6000B8460122474900E0074314F8013F203BEF
:101F700002FA03F00842F7D120782E2819D114F87C
:101F8000010F47F004072A280ED06FF02F022078A7
:101F9000A0F1300109290CD808EB880102EB4101BE
:101FA00000EB0108641CF2E70A98641C50F8048BEB
:101FB0000A9020780028CED0642808D0692806D05E
:101FC00075281ED05A460B9990476D1C58E00A9907
:101FD0004FF00A0901C90A91002802DA40422D2176
:101FE00002E0390504D52B218DF82010012103E0F2
:101FF000F90704D02021F7E78A4608AE0DE000215A
:10200000FAE70A994FF00A0901C90A91F7E7494628
:10201000FFF7BAFE303106F8011D0028F7D1ADEB0D
:10202000060000F12009780701D44FF00108C845E7
:1020300002DDA8EB090000E000208046002706E052
:1020400008A85A46C05D0B9990476D1C7F1C5745E8
:10205000F6DB04E030205A460B9990476D1CB8F12E
:102060000001A8F10108F5DC05E016F8010B5A465D
:102070000B9990476D1CB9F10001A9F10109F4DC3D
:10208000641C65E709280100000000000000000052
:10209000002F000000000700070000147F147F14C9
:1020A00000242A7F2A12006264081323003649554F
:1020B000225000000503000000001C224100000027
:1020C00041221C000014083E08140008083E0808BD
:1020D000000000A060000008080808080000606018
:1020E0000000002010080402003E5149453E000057
:1020F000427F4000004261514946002141454B3139
:10210000001814127F10002745454539003C4A4904
:102110004930000171090503003649494936000676
:102120004949291E000036360000000056360000DE
:102130000008142241000014141414140000412259
:10214000140800020151090600324959513E007C31
:102150001211127C007F49494936003E414141221B
:10216000007F4141221C007F49494941007F090904
:102170000901003E4149497A007F0808087F0000B4
:10218000417F4100002040413F01007F081422416F
:10219000007F40404040007F020C027F007F040827
:1021A000107F003E4141413E007F09090906003E83
:1021B0004151215E007F09192946004649494931AC
:1021C0000001017F0101003F4040403F001F2040CF
:1021D000201F003F4038403F00631408146300078D
:1021E0000870080700615149454300007F414100E4
:1021F00000552A552A55000041417F000004020184
:102200000204004040404040000001020400002061
:1022100054545478007F484444380038444444209F
:1022200000384444487F00385454541800087E094C
:1022300001020018A4A4A47C007F08040478000014
:10224000447D4000004080847D00007F10284400D1
:102250000000417F4000007C04180478007C0804E2
:10226000047800384444443800FC2424241800181E
:10227000242418FC007C080404080048545454200A
:1022800000043F444020003C4040207C001C204093
:10229000201C003C4030403C004428102844001CD6
:1022A000A0A0A07C004464544C44141414141414CE
:1022B000000000000000000000000000000000001E
:1022C000000000F8000000000000003330000000B3
:1022D00000100C06100C06000000000000000000BA
:1022E00040C07840C0784000043F04043F0404002C
:1022F000007088FC08300000001820FF211E00003C
:10230000F008F000E018000000211C031E211E0050
:1023100000F00888700000001E21232419272110D6
:1023200010160E0000000000000000000000000079
:10233000000000E018040200000000071820400020
:1023400000020418E0000000004020180700000010
:10235000404080F0804040000202010F0102020074
:10236000000000F0000000000101011F0101010058
:10237000000000000000000080B0700000000000BD
:102380000000000000000000000101010101010146
:1023900000000000000000000030300000000000DD
:1023A00000000000806018040060180601000000B2
:1023B00000E010080810E000000F102020100F00AF
:1023C000001010F8000000000020203F2020000036
:1023D000007008080888700000302824222130008E
:1023E00000300888884830000018202020110E0096
:1023F0000000C02010F8000000070424243F24003F
:1024000000F80888880808000019212020110E0013
:1024100000E0108888180000000F112020110E0025
:1024200000380808C83808000000003F000000001D
:102430000070880808887000001C222121221C00DE
:1024400000E010080810E0000000312222110F0007
:10245000000000C0C000000000000030300000009C
:10246000000000800000000000008060000000000C
:102470000000804020100800000102040810200025
:102480004040404040404000040404040404040070
:102490000008102040800000002010080402010005
:1024A000007048080808F000000000303601000005
:1024B000C030C828E810E0000718272423140B00B8
:1024C0000000C038E0000000203C23020227382032
:1024D00008F8888888700000203F202020110E0016
:1024E000C03008080808380007182020201008000D
:1024F00008F808080810E000203F202020100F00F6
:1025000008F88888E8081000203F202023201800C1
:1025100008F88888E8081000203F20000300000029
:10252000C03008080838000007182020221E0200CA
:1025300008F808000008F808203F210101213F2089
:10254000000808F8080800000020203F20200000B4
:1025500000000808F8080800C08080807F000000A4
:1025600008F888C028180800203F200126382000DD
:1025700008F8080000000000203F20202020300044
:1025800008F8F800F8F80800203F003F003F20005E
:1025900008F830C00008F808203F200007183F0066
:1025A000E01008080810E0000F10202020100F0095
:1025B00008F808080808F000203F21010101000088
:1025C000E01008080810E0000F18242438504F00CD
:1025D00008F8888888887000203F2000030C30208D
:1025E00000708808080838000038202121221C00CB
:1025F000180808F8080818000000203F2000000014
:1026000008F808000008F808001F202020201F00FC
:102610000878880000C83808000007380E0100005C
:10262000F80800F80008F800033C0700073C030026
:10263000081868808068180820302C03032C30208C
:102640000838C800C83808000000203F20000000FB
:1026500010080808C8380800203826212020180053
:10266000000000FE020202000000007F4040400027
:10267000000C30C000000000000000010638C0005F
:1026800000020202FE000000004040407F00000007
:10269000000004020202040000000000000000002C
:1026A000000000000000000080808080808080802A
:1026B0000002020400000000000000000000000012
:1026C00000008080808000000019242222223F2008
:1026D00008F8008080000000003F112020110E004B
:1026E0000000008080800000000E112020201100DA
:1026F000000000808088F800000E112020103F208C
:102700000000808080800000001F2222222213000F
:10271000008080F0888888180020203F202000005A
:102720000000808080808000006B9494949360000F
:1027300008F8008080800000203F210000203F201A
:1027400000809898000000000020203F202000001A
:10275000000000809898000000C08080807F00000A
:1027600008F8000080808000203F24022D302000E7
:10277000000808F8000000000020203F2020000092
:102780008080808080808000203F20003F20003FAC
:102790008080008080800000203F210000203F20BA
:1027A0000000808080800000001F202020201F006B
:1027B000808000808000000080FFA12020110E009A
:1027C0000000008080808000000E112020A0FF808B
:1027D000808080008080800020203F212000010038
:1027E000000080808080800000332424242419008D
:1027F000008080E0808000000000001F202000009A
:102800008080000000808000001F202020103F20DA
:10281000808080000080808000010E30080601006A
:1028200080800080008080800F300C030C300F000F
:1028300000808000808080000020312E0E3120003A
:10284000808080000080808080818E70180601006A
:1028500000808080808080000021302C2221300088
:1028600000000000807C020200000000003F4040A9
:1028700000000000FF00000000000000FF0000005A
:102880000002027C800000000040403F0000000089
:102890000006010102020404000000000000000024
:1028A000C0280008000000203C000000141F0008A1
:1028B000FC2800083C000020DC040000241F000865
:1028C00000A24A040000000000000000010203040E
:1028D00006070809000000000000000000000000DA
:1028E00000000000000000000001020304010203D8
:0C28F000040607080902040608000000A6
:0400000508000131BD
:00000001FF
